:020000040800F2
:1000000000500020FD410008154000081D40000878
:10001000254000082D400008354000080000000081
:100020000000000000000000000000003D4000084B
:1000300049400008000000005540000861400008E9
:100040004542000845420008454200084542000874
:100050004542000845420008454200084542000864
:100060004542000845420008454200084542000854
:100070004542000845420008454200084542000844
:100080004542000845420008454200084542000834
:100090004542000845420008454200084542000824
:1000A0004542000845420008454200084542000814
:1000B0004542000845420008454200084542000804
:1000C00045420008454200084542000845420008F4
:1000D00045420008454200084542000845420008E4
:1000E0004542000845420008454200080000000063
:1000F0000000000000000000000000000000000000
:0C01000000000000000000005FF808F1A3
:1001100010B5054C237833B9044B13B10448AFF341
:1001200000800123237010BD840300200000000024
:10013000D0D0000808B5034B1BB103490348AFF307
:10014000008008BD0000000088030020D0D0000817
:10015000034613F8012B002AFBD1181A0138704707
:1001600081F0004102E000BF83F0004330B54FEA68
:1001700041044FEA430594EA050F08BF90EA020FD5
:100180001FBF54EA000C55EA020C7FEA645C7FEA68
:10019000655C00F0E2804FEA5454D4EB5555B8BF8B
:1001A0006D420CDD2C4480EA020281EA030382EAFC
:1001B000000083EA010180EA020281EA0303362D8E
:1001C00088BF30BD11F0004F4FEA01314FF4801C61
:1001D0004CEA113102D0404261EB410113F0004F73
:1001E0004FEA03334CEA133302D0524263EB43032A
:1001F00094EA050F00F0A780A4F10104D5F1200EC8
:100200000DDB02FA0EFC22FA05F2801841F1000122
:1002100003FA0EF2801843FA05F359410EE0A5F1F6
:1002200020050EF1200E012A03FA0EFC28BF4CF027
:10023000020C43FA05F3C01851EBE37101F00045DD
:1002400007D54FF0000EDCF1000C7EEB00006EEBEA
:100250000101B1F5801F1BD3B1F5001F0CD3490874
:100260005FEA30004FEA3C0C04F101044FEA4452CB
:1002700012F5800F80F09A80BCF1004F08BF5FEA52
:10028000500C50F1000041EB045141EA050130BD32
:100290005FEA4C0C404141EB0101013C28BFB1F544
:1002A000801FE9D291F0000F04BF01460020B1FA8F
:1002B00081F308BF2033A3F10B03B3F120020CDA62
:1002C0000C3208DD02F1140CC2F10C0201FA0CF040
:1002D00021FA02F10CE002F11402D8BFC2F1200CA5
:1002E00001FA02F120FA0CFCDCBF41EA0C0190405B
:1002F000E41AA2BF01EB0451294330BD6FEA0404A4
:100300001F3C1CDA0C340EDC04F11404C4F120028E
:1003100020FA04F001FA02F340EA030021FA04F3A0
:1003200045EA030130BDC4F10C04C4F1200220FAF7
:1003300002F001FA04F340EA0300294630BD21FA35
:1003400004F0294630BD94F0000F83F4801306BFFB
:1003500081F480110134013D4EE77FEA645C18BFEF
:100360007FEA655C29D094EA050F08BF90EA020F86
:1003700005D054EA000C04BF1946104630BD91EA7E
:10038000030F1EBF0021002030BD5FEA545C05D181
:100390004000494128BF41F0004130BD14F58004C0
:1003A0003CBF01F5801130BD01F0004545F0FE4134
:1003B00041F470014FF0000030BD7FEA645C1ABF69
:1003C000194610467FEA655C1CBF0B46024650EAA0
:1003D000013406BF52EA033591EA030F41F40021CC
:1003E00030BD00BF90F0000F04BF0021704730B552
:1003F0004FF4806404F132044FF000054FF0000127
:1004000050E700BF90F0000F04BF0021704730B5E7
:100410004FF4806404F1320410F0004548BF4042BC
:100420004FF000013EE700BF42004FEAE2014FEA11
:1004300031014FEA02701FBF12F07F4393F07F4FEC
:1004400081F06051704732F07F4208BF704793F0EF
:100450007F4F04BF41F40021704730B54FF4607402
:1004600001F0004521F000411CE700BF50EA010205
:1004700008BF704730B54FF000050AE050EA0102AE
:1004800008BF704730B511F0004502D5404261EB1E
:1004900041014FF4806404F132045FEA915C3FF45F
:1004A000D8AE4FF003025FEADC0C18BF03325FEAFC
:1004B000DC0C18BF033202EBDC02C2F1200300FAAD
:1004C00003FC20FA02F001FA03FE40EA0E0021FAD2
:1004D00002F11444BDE600BF70B54FF0FF0C4CF4C0
:1004E000E06C1CEA11541DBF1CEA135594EA0C0F72
:1004F00095EA0C0F00F0DEF82C4481EA030621EAAD
:100500004C5123EA4C5350EA013518BF52EA0335E7
:1005100041F4801143F4801338D0A0FB02CE4FF099
:100520000005E1FB02E506F00042E0FB03E54FF0C9
:100530000006E1FB03569CF0000F18BF4EF0010EC1
:10054000A4F1FF04B6F5007F64F5407404D25FEABD
:100550004E0E6D4146EB060642EAC62141EA555170
:100560004FEAC52040EA5E504FEACE2EB4F1FD0CB2
:1005700088BFBCF5E06F1ED8BEF1004F08BF5FEA30
:10058000500E50F1000041EB045170BD06F00046E2
:1005900046EA010140EA020081EA0301B4EB5C048F
:1005A000C2BFD4EB0C0541EA045170BD41F4801187
:1005B0004FF0000E013C00F3AB8014F1360FDEBFAC
:1005C000002001F0004170BDC4F10004203C35DA88
:1005D0000C341BDC04F11404C4F1200500FA05F30B
:1005E00020FA04F001FA05F240EA020001F00042AC
:1005F00021F0004110EBD37021FA04F642EB060122
:100600005EEA430E08BF20EAD37070BDC4F10C044B
:10061000C4F1200500FA04F320FA05F001FA04F20F
:1006200040EA020001F0004110EBD37041F10001FB
:100630005EEA430E08BF20EAD37070BDC4F1200506
:1006400000FA05F24EEA020E20FA04F301FA05F26E
:1006500043EA020321FA04F001F0004121FA04F216
:1006600020EA020000EBD3705EEA430E08BF20EAE6
:10067000D37070BD94F0000F0FD101F00046400020
:1006800041EB010111F4801F08BF013CF7D041EAA2
:10069000060195F0000F18BF704703F000465200A6
:1006A00043EB030313F4801F08BF013DF7D043EA77
:1006B0000603704794EA0C0F0CEA135518BF95EA2D
:1006C0000C0F0CD050EA410618BF52EA4306D1D1B4
:1006D00081EA030101F000414FF0000070BD50EAD3
:1006E000410606BF1046194652EA430619D094EA5D
:1006F0000C0F02D150EA013613D195EA0C0F05D147
:1007000052EA03361CBF104619460AD181EA03019A
:1007100001F0004141F0FE4141F470014FF0000052
:1007200070BD41F0FE4141F4780170BD70B54FF0ED
:10073000FF0C4CF4E06C1CEA11541DBF1CEA13556D
:1007400094EA0C0F95EA0C0F00F0A7F8A4EB05044F
:1007500081EA030E52EA03354FEA013100F0888046
:100760004FEA03334FF0805545EA131343EA12630F
:100770004FEA022245EA111545EA10654FEA0026C4
:100780000EF000419D4208BF964244F1FD0404F57D
:10079000407402D25B084FEA3202B61A65EB0305D9
:1007A0005B084FEA32024FF480104FF4002CB6EB96
:1007B000020E75EB030E22BFB61A754640EA0C0016
:1007C0005B084FEA3202B6EB020E75EB030E22BF56
:1007D000B61A754640EA5C005B084FEA3202B6EB97
:1007E000020E75EB030E22BFB61A754640EA9C0056
:1007F0005B084FEA3202B6EB020E75EB030E22BF26
:10080000B61A754640EADC0055EA060E18D04FEAE3
:10081000051545EA16754FEA06164FEAC30343EA83
:1008200052734FEAC2025FEA1C1CC0D111F4801F50
:100830000BD141EA00014FF000004FF0004CB6E749
:1008400011F4801F04BF01430020B4F1FD0C88BFE8
:10085000BCF5E06F3FF6AFAEB5EB030C04BFB6EBF3
:10086000020C5FEA500C50F1000041EB045170BDE6
:100870000EF0004E4EEA113114EB5C04C2BFD4EB13
:100880000C0541EA045170BD41F480114FF0000E97
:10089000013C90E645EA060E8DE60CEA135594EA13
:1008A0000C0F08BF95EA0C0F3FF43BAF94EA0C0F16
:1008B0000AD150EA01347FF434AF95EA0C0F7FF48B
:1008C00025AF104619462CE795EA0C0F06D152EADF
:1008D00003353FF4FDAE1046194622E750EA4106C3
:1008E00018BF52EA43067FF4C5AE50EA41047FF4D4
:1008F0000DAF52EA43057FF4EBAE12E74FF0FF3C39
:1009000006E000BF4FF0010C02E000BF4FF0010C09
:100910004DF804CD4FEA410C7FEA6C5C4FEA430C82
:1009200018BF7FEA6C5C1BD001B050EA410C0CBFD1
:1009300052EA430C91EA030F02BF90EA020F002033
:10094000704710F1000F91EA030F58BF994208BF9A
:1009500090422CBFD8176FEAE37040F00100704757
:100960004FEA410C7FEA6C5C02D150EA013C07D1AE
:100970004FEA430C7FEA6C5CD6D152EA033CD3D0F9
:100980005DF8040B704700BF8446104662468C46F3
:100990001946634600E000BF01B5FFF7B7FF002826
:1009A00048BF10F1000F01BD4DF808EDFFF7F4FF4F
:1009B0000CBF012000205DF808FB00BF4DF808EDDA
:1009C000FFF7EAFF34BF012000205DF808FB00BFFD
:1009D0004DF808EDFFF7E0FF94BF012000205DF81F
:1009E00008FB00BF4DF808EDFFF7CEFF94BF0120D4
:1009F00000205DF808FB00BF4DF808EDFFF7C4FFCD
:100A000034BF012000205DF808FB00BF4FEA410C15
:100A10007FEA6C5C02D150EA013C0AD14FEA430CF8
:100A20007FEA6C5C02D152EA033C02D14FF0000035
:100A300070474FF0010070474FEA410212F5001273
:100A400015D211D56FF47873B3EB625212D94FEA15
:100A5000C12343F0004343EA505311F0004F23FAFF
:100A600002F018BF404270474FF00000704750EA54
:100A7000013005D111F0004008BF6FF00040704711
:100A80004FF00000704700BF4A0011D212F500126B
:100A900011D20DD56FF47873B3EB62520ED44FEAD6
:100AA000C12343F0004343EA505323FA02F0704756
:100AB0004FF00000704750EA013002D14FF0FF3094
:100AC00070474FF0000070474FEA4102B2F1E04337
:100AD00024BFB3F5001CDCF1FE5C0DD901F0004C25
:100AE0004FEAC0024CEA5070B2F1004F40EB830075
:100AF00008BF20F00100704711F0804F21D113F1A1
:100B00003872BCBF01F00040704741F480114FEAD9
:100B10005252C2F11802C2F1200C10FA0CF320FA62
:100B200002F018BF40F001004FEAC1234FEAD3237F
:100B300003FA0CFC40EA0C0023FA02F34FEA4303E9
:100B4000CCE77FEA625307D150EA01331EBF4FF072
:100B5000FE4040F44000704701F0004040F0FE408D
:100B600040F40000704700BF80F0004002E000BF8A
:100B700081F0004142001FBF5FEA410392EA030F88
:100B80007FEA226C7FEA236C6AD04FEA1262D2EBD2
:100B90001363C1BFD218414048404140B8BF5B42D7
:100BA000192B88BF704710F0004F40F4000020F070
:100BB0007F4018BF404211F0004F41F4000121F086
:100BC0007F4118BF494292EA030F3FD0A2F10102D0
:100BD00041FA03FC10EB0C00C3F1200301FA03F10E
:100BE00000F0004302D5494260EB4000B0F5000F31
:100BF00013D3B0F1807F06D340084FEA310102F1F0
:100C00000102FE2A51D2B1F1004F40EBC25008BFA1
:100C100020F0010040EA03007047490040EB00006B
:100C2000013A28BFB0F5000FEDD2B0FA80FCACF16C
:100C3000080CB2EB0C0200FA0CF0AABF00EBC25099
:100C400052421843BCBFD0401843704792F0000F87
:100C500081F4000106BF80F400000132013BB5E7DA
:100C60004FEA41037FEA226C18BF7FEA236C21D050
:100C700092EA030F04D092F0000F08BF08467047B5
:100C800090EA010F1CBF0020704712F07F4F04D183
:100C9000400028BF40F00040704712F100723CBF96
:100CA00000F50000704700F0004343F0FE4040F4C0
:100CB000000070477FEA226216BF08467FEA23637E
:100CC0000146420206BF5FEA412390EA010F40F469
:100CD000800070474FF0000304E000BF10F00043B5
:100CE00048BF40425FEA000C08BF704743F096439C
:100CF00001464FF000001CE050EA010208BF7047B7
:100D00004FF000030AE000BF50EA010208BF70473D
:100D100011F0004302D5404261EB41015FEA010C52
:100D200002BF84460146002043F0B64308BFA3F14A
:100D30008053A3F50003BCFA8CF2083AA3EBC2532C
:100D400010DB01FA02FC634400FA02FCC2F120024B
:100D5000BCF1004F20FA02F243EB020008BF20F082
:100D60000100704702F1200201FA02FCC2F12002E8
:100D700050EA4C0021FA02F243EB020008BF20EADD
:100D8000DC7070474FF0FF0C1CEAD0521EBF1CEA0B
:100D9000D15392EA0C0F93EA0C0F6FD01A4480EAF9
:100DA000010C400218BF5FEA41211ED04FF00063E2
:100DB00043EA501043EA5111A0FB01310CF000400E
:100DC000B1F5000F3EBF490041EAD3715B0040EA34
:100DD000010062F17F02FD2A1DD8B3F1004F40EB04
:100DE000C25008BF20F00100704790F0000F0CF0D7
:100DF000004C08BF49024CEA502040EA51207F3A9B
:100E0000C2BFD2F1FF0340EAC250704740F4000075
:100E10004FF00003013A5DDC12F1190FDCBF00F066
:100E200000407047C2F10002410021FA02F1C2F114
:100E3000200200FA02FC5FEA310040F1000053EAB0
:100E40004C0308BF20EADC70704792F0000F00F0FE
:100E5000004C02BF400010F4000F013AF9D040EA04
:100E60000C0093F0000F01F0004C02BF490011F498
:100E7000000F013BF9D041EA0C018FE70CEAD15396
:100E800092EA0C0F18BF93EA0C0F0AD030F0004C16
:100E900018BF31F0004CD8D180EA010000F00040CA
:100EA000704790F0000F17BF90F0004F084691F088
:100EB000000F91F0004F14D092EA0C0F01D14202C2
:100EC0000FD193EA0C0F03D14B0218BF084608D18B
:100ED00080EA010000F0004040F0FE4040F40000D5
:100EE000704740F0FE4040F4400070474FF0FF0C68
:100EF0001CEAD0521EBF1CEAD15392EA0C0F93EAAF
:100F00000C0F69D0A2EB030280EA010C49024FEA00
:100F1000402037D04FF0805343EA111143EA1013B9
:100F20000CF000408B4238BF5B0042F17D024FF471
:100F3000000C8B4224BF5B1A40EA0C00B3EB510F4C
:100F400024BFA3EB510340EA5C00B3EB910F24BF35
:100F5000A3EB910340EA9C00B3EBD10F24BFA3EBBA
:100F6000D10340EADC001B0118BF5FEA1C1CE0D182
:100F7000FD2A3FF650AF8B4240EBC25008BF20F035
:100F8000010070470CF0004C4CEA50207F32C2BF89
:100F9000D2F1FF0340EAC250704740F400004FF026
:100FA0000003013A37E792F0000F00F0004C02BF57
:100FB000400010F4000F013AF9D040EA0C0093F021
:100FC000000F01F0004C02BF490011F4000F013B7B
:100FD000F9D041EA0C0195E70CEAD15392EA0C0FE3
:100FE00008D142027FF47DAF93EA0C0F7FF470AF1B
:100FF000084676E793EA0C0F04D14B023FF44CAF5E
:1010000008466EE730F0004C18BF31F0004CCAD1F2
:1010100030F000427FF45CAF31F000437FF43CAF2E
:101020005FE700BF4FF0FF3C06E000BF4FF0010C50
:1010300002E000BF4FF0010C4DF804CD4FEA400232
:101040004FEA41037FEA226C18BF7FEA236C11D07C
:1010500001B052EA530C18BF90EA010F58BFB2EB2F
:10106000030088BFC81738BF6FEAE17018BF40F0AF
:10107000010070477FEA226C02D15FEA402C05D163
:101080007FEA236CE4D15FEA412CE1D05DF8040BE8
:10109000704700BF844608466146FFE70FB5FFF77B
:1010A000C9FF002848BF10F1000F0FBD4DF808ED33
:1010B000FFF7F4FF0CBF012000205DF808FB00BF24
:1010C0004DF808EDFFF7EAFF34BF012000205DF87E
:1010D00008FB00BF4DF808EDFFF7E0FF94BF0120CB
:1010E00000205DF808FB00BF4DF808EDFFF7D2FFC8
:1010F00094BF012000205DF808FB00BF4DF808ED0B
:10110000FFF7C8FF34BF012000205DF808FB00BFD7
:101110004FEA40024FEA41037FEA226C02D15FEAC4
:10112000402C08D17FEA236C02D15FEA412C02D126
:101130004FF0000070474FF00100704738B50022B3
:10114000002304460D46FFF739FC28B920462946FE
:10115000BDE8384000F00AB8204605F1004100F033
:1011600005F8404261EB410138BD00BFD0B5002217
:101170000B4B06460F46FFF7AFF9FFF785FC044619
:10118000FFF730F90022074BFFF7A6F902460B469E
:1011900030463946FEF7E8FFFFF776FC2146D0BD22
:1011A0000000F03D0000F041B0B58AB000AFF8603B
:1011B000B9607A603B6097F8443087F82630B7F81A
:1011C0004030BB84FB6B3B623B8FBB833B68BB61A6
:1011D0007B687B61BB683B6107F11003184600F038
:1011E0000EF8FB681D4607F110040FCC0FC594E8FC
:1011F000030085E80300F8682837BD46B0BD80B518
:1012000082B000AF78607B689B7D002B0CD13321CE
:10121000786800F063F83221786800F05FF82821E0
:10122000786800F05BF803E03821786800F056F841
:101230000121786800F052F80C21786800F04EF82F
:101240000621786800F04AF800BF0837BD4680BD27
:1012500090B585B000AF786039600023FB730AE079
:10126000FB7B3A6813441B781946786800F064F8F1
:10127000FB7B0133FB73FC7B3868FEF769FF034699
:101280009C42EDD300BF00BF1437BD4690BD0000A7
:1012900080B582B000AF78600B46FB701346BB7020
:1012A000FB78074AD25CBB781344DBB2803BDBB2ED
:1012B0001946786800F012F800BF0837BD4680BDB7
:1012C00008D1000880B582B000AF7860012178684D
:1012D00000F004F800BF0837BD4680BD80B582B07D
:1012E00000AF78600B46FB707B6898687B689B89D1
:1012F0000022194603F096FA7B689B7D002B11D1E2
:10130000FB781B09DBB204221946786800F042F82A
:10131000FB7803F00F03DBB204221946786800F073
:1013200039F805E0FB7808221946786800F032F8B1
:1013300000BF0837BD4680BD80B582B000AF786081
:101340000B46FB707B6898687B689B890122194675
:1013500003F068FA7B689B7D002B11D1FB781B0999
:10136000DBB204221946786800F014F8FB7803F029
:101370000F03DBB204221946786800F00BF805E091
:10138000FB7808221946786800F004F800BF083797
:10139000BD4680BD80B584B000AF78600B46FB7061
:1013A0001346BB700023FB7319E07B681A68FB7B54
:1013B0009B00134418687B685A68FB7B5B001344EE
:1013C0001988FA78FB7B42FA03F3DBB203F00103DE
:1013D000DBB21A4603F026FAFB7B0133FB73FA7B80
:1013E000BB789A42E1D37B6818697B689B8A0122AB
:1013F000194603F017FA012002F088FF7B6818698C
:101400007B689B8A0022194603F00CFA00BF103754
:10141000BD4680BD00000000B0B596B004AF02F03C
:1014200013FF00F025F900F097F900F067F97E4B03
:1014300007F120040FCB84E80F007C4A07F1180362
:1014400092E8030083E80300384607F1180207F129
:101450002001002303934FF400530293744B019334
:101460004FF480530093724BFFF79EFE07F1300458
:101470003D460FCD0FC495E8030084E8030007F153
:1014800030031846FFF71EFF6A4802F0EBF90346E7
:10149000694A1360694B6A4A6A49664800F0B0F9C4
:1014A000674B5B6A68491846FFF76CFC03461846B1
:1014B000FEF7BAFF5AA3D3E90023FFF737F9024634
:1014C0000B4610461946FFF7FFFA03465F4A1360C2
:1014D0005B4B9B6A5C491846FFF754FC0346184671
:1014E000FEF7A2FF4EA3D3E90023FFF71FF9024640
:1014F0000B4610461946FFF7E7FA0346544A1360B5
:101500004F4BDB6A534A13604D4B1B6B524A1360BF
:101510004E4B1B681846FEF787FF02460B464F49A5
:101520004F4805F04DFE07F1300300220021184618
:10153000FFF7AEFE07F1300349491846FFF788FE72
:10154000434B1B681846FEF76FFF02460B464349A4
:10155000434805F035FE07F1300308220021184604
:10156000FFF796FE07F130033D491846FFF770FE7E
:10157000384B1B681846FEF757FF02460B463749A3
:10158000374805F01DFE07F13003002201211846FF
:10159000FFF77EFE07F1300331491846FFF758FE8A
:1015A0002D4B1B681846FEF73FFF02460B462B49A2
:1015B0002B4805F005FE07F13003082201211846EB
:1015C000FFF766FE07F1300325491846FFF740FE96
:1015D00000BF02F091FE03461846FFF77BFB024670
:1015E000204B1B6819461046FFF7C2FA03461E49F6
:1015F0001846FFF7C7FB03461C491846FFF760FD76
:101600000346002BE5D102F077FE03461846FFF7AC
:1016100061FB0346134A13603CE700BFAFF3008051
:101620006E861BF0F9210940F0D0000800D10008B7
:10163000000C0140B8030020B0030020740100201A
:101640000C0400200000002000003443A003002010
:10165000A4030020A8030020AC030020E8D0000869
:1016600044040020B403002000007A4400401C46DB
:1016700080B590B000AF07F118032822002118466A
:1016800005F003FE3B1D00221A605A609A60DA6082
:101690001A610123BB614FF48033FB6100233B627D
:1016A0000123BB6202237B634FF48033BB634FF49F
:1016B000E013FB6307F11803184604F05FFA0346D2
:1016C000002B01D000F094F80F237B600223BB6055
:1016D0000023FB604FF480633B6100237B613B1D73
:1016E0000221184604F0CCFC0346002B01D000F088
:1016F0007FF800BF4037BD4680BD000080B500AF19
:10170000124B134A1A60114B124A5A600F4B0022B7
:101710009A600E4B0022DA600C4B4FF480421A6143
:101720000A4B00225A61094B00229A61074B0022A2
:10173000DA61064B00221A62044803F08BF8034674
:10174000002B01D000F054F800BF80BDB80300208A
:1017500000580040A086010080B588B000AF07F1B6
:10176000100300221A605A609A60DA601E4B9B696F
:101770001D4A43F0200393611B4B9B6903F0200338
:10178000FB60FB68184B9B69174A43F008039361A1
:10179000154B9B6903F00803BB60BB68124B9B6948
:1017A000114A43F0040393610F4B9B6903F0040358
:1017B0007B607B68002243F2F8010C4803F032F8AA
:1017C00043F2F8033B6101237B610023BB610223E9
:1017D000FB6107F110031946044802F09FFE00BFA9
:1017E0002037BD4680BD00BF00100240000C014004
:1017F00080B400AF72B600BF00BFFDE7000000007C
:101800002DE9B04FFEB000AF07F5FC73A3F5F673FA
:10181000186007F5FC73A3F5F873196007F5FC73FE
:10182000A3F5FA731A6007F5FC73A3F5FA7207F5CE
:10183000FC73A3F5F6731168186802F0DDF907F57B
:10184000FC73A3F5FA7207F5FC73A3F5F673116840
:10185000186802F0EDF84FF00003C7F844314FF07C
:101860000003C7F840314FF00003C7F83C3107F5DB
:10187000FC73A3F5B073994A1A60002387F8D3313B
:10188000002387F8D23107F5FC73A3F5FA731B68C0
:101890001B681846FEF7C8FD4FF000024FF080436A
:1018A00009F0EAF882468B4607F5FC73A3F5FA7354
:1018B0001B685B681846FEF7B7FD4FF000024FF05B
:1018C000804309F0D9F802460B4650465946FEF7C8
:1018D0004DFC02460B4692469B4607F5FC73A3F56A
:1018E000FA731B689B681846FEF79EFD4FF00002D6
:1018F0004FF0804309F0C0F802460B465046594667
:10190000FEF734FC02460B461046194609F01CF956
:1019100002460B4610461946FFF7D6F8024607F571
:10192000FC73A3F5B2731A6007F5FC73A3F5FA73A1
:101930001B681B681846FEF777FD4FF000024FF05A
:10194000804309F099F882468B4607F5FC73A3F5AE
:10195000FA731B689B681846FEF766FD4FF000029D
:101960004FF0804309F088F802460B46504659462E
:10197000FEF7FCFB02460B461046194609F0E4F858
:1019800002460B4610461946FFF79EF8024607F539
:10199000FC73A3F5B4731A6007F5FC73A3F5FA732F
:1019A0001B681A6807F5FC73A3F5B2731B68194628
:1019B0001046FFF79BFA03461846FEF735FD024630
:1019C0000B461046194609F02DF802460B46104604
:1019D0001946FFF779F8024607F5FC73A3F5FA7389
:1019E0001B685A6207F5FC73A3F5FA731B685B6802
:1019F00083F000431846FEF717FD82468B4607F535
:101A0000FC73A3F5FA731B685B6A1846FEF70CFDBE
:101A100002460B461046194609F0BAF802460B4634
:101A200050465946FEF782FE02460B4692469B46BA
:101A300007F5FC73A3F5B2731B681846FEF7F4FCB8
:101A400002460B4650465946FEF770FE02460B46CC
:101A50001046194608F0E6FF02460B4610461946A6
:101A6000FFF732F8024607F5FC73A3F5FA731B681B
:101A70009A6207F5FC73A3F5FA731B685B6A194653
:101A80001846FFF745FB0346002B08D0D7F84C213A
:101A900007F5FC73A3F5FA731B685A6207E007F5B4
:101AA000FC73A3F5FA731B685B6AC7F84C3107F542
:101AB000FC73A3F5FA731B689B6A19461846FFF777
:101AC00027FB0346002B0BD0D7F8482107F5FC7302
:101AD000A3F5FA731B689A620AE000BF0AD7233C99
:101AE00007F5FC73A3F5FA731B689B6AC7F84831C6
:101AF00007F5FC73A3F5FA731B689B6A4FF08041EE
:101B00001846FFF7F3F903461846FEF78DFC024628
:101B10000B461046194609F03BF882468B4607F5FE
:101B2000FC73A3F5FA731B685B6A4FF0804118469B
:101B3000FFF7DCF903461846FEF776FC02460B4633
:101B40001046194609F024F802460B4650465946FD
:101B5000FEF7C2FC02460B4610461946FEF7B4FFDC
:101B6000024607F5FC73A3F5F8731B68C3F86421FC
:101B700007F5FC73A3F5FA731B689B6A4FF080416D
:101B80001846FFF7B3F903461846FEF74DFC024628
:101B90000B461046194609F045F882468B4607F574
:101BA000FC73A3F5FA731B685B6A4FF0804118461B
:101BB000FFF79CF903461846FEF736FC02460B4633
:101BC0001046194608F0E4FF02460B4650465946B7
:101BD000FEF782FC02460B4610461946FEF774FFDC
:101BE000024607F5FC73A3F5F8731B68C3F8682178
:101BF00007F5FC73A3F5FA731B689B6A4FF08041ED
:101C00001846FFF773F903461846FEF70DFC024627
:101C10000B461046194608F0BBFF82468B4607F577
:101C2000FC73A3F5FA731B685B6A4FF0804118469A
:101C3000FFF75CF903461846FEF7F6FB02460B4633
:101C40001046194608F0EEFF02460B46504659462C
:101C5000FEF742FC02460B4610461946FEF734FFDB
:101C6000024607F5FC73A3F5F8731B68C3F86C21F3
:101C700007F5FC73A3F5FA731B689B6A4FF080416C
:101C80001846FFF733F903461846FEF7CDFB024628
:101C90000B461046194608F0C5FF02460B4614468F
:101CA00083F0004507F5FC73A3F5FA731B685B6AC4
:101CB0004FF080411846FFF719F903461846FEF722
:101CC000B3FB02460B461046194608F0ABFF02462E
:101CD0000B4620462946FEF7FFFB02460B46104600
:101CE0001946FEF7F1FE024607F5FC73A3F5F873FB
:101CF0001B68C3F8702107F5FC73A3F5F8731B6824
:101D0000D3F864311846FEF78FFB4FF000024FF016
:101D1000804308F0B1FE04460D4607F5FC73A3F5B9
:101D2000F8731B68D3F868311846FEF77DFB4FF057
:101D300000024FF0804308F09FFE02460B4620460B
:101D40002946FEF713FA02460B4614461D4607F5D0
:101D5000FC73A3F5F8731B68D3F86C311846FEF7D3
:101D600063FB4FF000024FF0804308F085FE02460F
:101D70000B4620462946FEF7F9F902460B46144663
:101D80001D4607F5FC73A3F5F8731B68D3F8703193
:101D90001846FEF749FB4FF000024FF0804308F071
:101DA0006BFE02460B4620462946FEF7DFF9024647
:101DB0000B461046194608F0C7FE02460B46104671
:101DC0001946FEF781FE0346C7F8403107F5FC735C
:101DD000A3F5F8731B68D3F86431D7F84021114696
:101DE0001846FFF783F803461A4607F5FC73A3F578
:101DF000F8731B68C3F8642107F5FC73A3F5F87347
:101E00001B68D3F86831D7F8402111461846FFF710
:101E10006DF803461A4607F5FC73A3F5F8731B68C3
:101E2000C3F8682107F5FC73A3F5F8731B68D3F8B2
:101E30006C31D7F8402111461846FFF757F8034692
:101E40001A4607F5FC73A3F5F8731B68C3F86C21F9
:101E500007F5FC73A3F5F8731B68D3F87031D7F856
:101E6000402111461846FFF741F803461A4607F588
:101E7000FC73A3F5F8731B68C3F8702107F5FC73B6
:101E8000A3F5F8731B68D3F844311846FEF7CCFA73
:101E900004460D4607F5FC73A3F5B0731B6818469E
:101EA000FEF7C2FA4FF00002DF4BFEF715FB0246C9
:101EB0000B4692469B4607F5FC73A3F5FA731B6825
:101EC000DB681846FEF7B0FA02460B465046594604
:101ED000FEF702FB02460B4692469B4607F5FC7353
:101EE000A3F5F8731B68D3F848311846FEF79CFA3F
:101EF00002460B4650465946FEF7EEFA02460B469E
:101F000020462946FEF730F902460B4614461D4688
:101F100007F5FC73A3F5B0731B681846FEF784FA47
:101F20004FF00002C04BFEF7D7FA02460B4692462E
:101F30009B4607F5FC73A3F5FA731B681B691846EB
:101F4000FEF772FA02460B4650465946FEF7C4FAAF
:101F500002460B4692469B4607F5FC73A3F5F873C1
:101F60001B68D3F84C311846FEF75EFA02460B4662
:101F700050465946FEF7B0FA02460B46204629461F
:101F8000FEF7F2F802460B4614461D4607F5FC73B1
:101F9000A3F5B0731B681846FEF746FA4FF000022F
:101FA000A14BFEF799FA02460B4692469B4607F56F
:101FB000FC73A3F5FA731B685B691846FEF734FAE5
:101FC00002460B4650465946FEF786FA02460B4635
:101FD00092469B4607F5FC73A3F5F8731B68D3F88C
:101FE00050311846FEF720FA02460B465046594635
:101FF000FEF772FA02460B4620462946FEF7B4F871
:1020000002460B4610461946FEF75EFD024607F5EE
:10201000FC73A3F5F8731B68C3F8542107F5FC7330
:10202000A3F5B0731B681846FEF7FEF94FF00002E7
:102030007D4BFEF751FA02460B4614461D4607F546
:10204000FC73A3F5FA731B68DB681846FEF7ECF91E
:1020500002460B4620462946FEF73EFA02460B464C
:1020600014461D4607F5FC73A3F5F8731B68D3F8F7
:1020700044311846FEF7D8F902460B462046294659
:10208000FEF72AFA02460B4614461D4607F5FC7376
:10209000A3F5F8731B68D3F848311846FEF7C4F966
:1020A00002460B4620462946FEF760F802460B46DC
:1020B00014461D4607F5FC73A3F5B0731B6818465C
:1020C000FEF7B2F94FF00002574BFEF705FA024651
:1020D0000B4692469B4607F5FC73A3F5FA731B6803
:1020E0005B691846FEF7A0F902460B465046594672
:1020F000FEF7F2F902460B4692469B4607F5FC7343
:10210000A3F5F8731B68D3F84C311846FEF78CF929
:1021100002460B4650465946FEF7DEF902460B468C
:1021200020462946FEF722F802460B4614461D4675
:1021300007F5FC73A3F5B0731B681846FEF774F936
:102140004FF00002384BFEF7C7F902460B469246A5
:102150009B4607F5FC73A3F5FA731B681B691846C9
:10216000FEF762F902460B4650465946FEF7B4F9AF
:1021700002460B4692469B4607F5FC73A3F5F8739F
:102180001B68D3F850311846FEF74EF902460B464D
:1021900050465946FEF7A0F902460B46204629460E
:1021A000FDF7E2FF02460B4610461946FEF78CFC8F
:1021B000024607F5FC73A3F5F8731B68C3F85821B2
:1021C00007F5FC73A3F5B0731B681846FEF72CF9EE
:1021D0004FF00002144BFEF77FF902460B461446FF
:1021E0001D4607F5FC73A3F5FA731B681B691846B7
:1021F000FEF71AF902460B4620462946FEF76CF90F
:1022000002460B4614461D4607F5FC73A3F5F8730A
:102210001B68D3F844311846FEF706F902460B4610
:102220002046294602E000BF0000E03FFEF754F9D7
:1022300002460B4614461D4607F5FC73A3F5B07322
:102240001B681846FEF7F0F84FF00002E24BFEF76D
:1022500043F902460B4692469B4607F5FC73A3F5ED
:10226000FA731B685B691846FEF7DEF802460B46F8
:1022700050465946FEF730F902460B4692469B46B9
:1022800007F5FC73A3F5F8731B68D3F848311846BB
:10229000FEF7CAF802460B4650465946FEF71CF9AF
:1022A00002460B4620462946FDF75EFF02460B46D6
:1022B00014461D4607F5FC73A3F5F8731B68D3F8A5
:1022C0004C311846FEF7B0F802460B462046294628
:1022D000FDF74CFF02460B4614461D4607F5FC73FE
:1022E000A3F5B0731B681846FEF79EF84FF0000286
:1022F000B94BFEF7F1F802460B4692469B4607F5AE
:10230000FC73A3F5FA731B68DB681846FEF78CF8BC
:1023100002460B4650465946FEF7DEF802460B468B
:1023200092469B4607F5FC73A3F5F8731B68D3F838
:1023300050311846FEF778F802460B46504659468B
:10234000FEF7CAF802460B4620462946FDF70EFF67
:1023500002460B4610461946FEF7B6FB024607F545
:10236000FC73A3F5F8731B68C3F85C2107F5FC73D5
:10237000A3F5B0731B681846FEF756F84FF000023D
:10238000954BFEF7A9F802460B4614461D4607F585
:10239000FC73A3F5FA731B685B691846FEF744F8F3
:1023A00002460B4620462946FEF796F802460B46A3
:1023B00014461D4607F5FC73A3F5F8731B68D3F8A4
:1023C00044311846FEF730F802460B4620462946AF
:1023D000FEF782F802460B4614461D4607F5FC73CD
:1023E000A3F5B0731B681846FEF71EF84FF0000205
:1023F000794BFEF771F802460B4692469B4607F56D
:10240000FC73A3F5FA731B681B691846FEF70CF8FA
:1024100002460B4650465946FEF75EF802460B460A
:1024200092469B4607F5FC73A3F5F8731B68D3F837
:1024300048311846FDF7F8FF02460B46504659460C
:10244000FEF74AF802460B4620462946FDF78EFE67
:1024500002460B4614461D4607F5FC73A3F5B07300
:102460001B681846FDF7E0FF4FF000025A4BFEF7DD
:1024700033F802460B4692469B4607F5FC73A3F5DC
:10248000FA731B68DB681846FDF7CEFF02460B4661
:1024900050465946FEF720F802460B4692469B46A8
:1024A00007F5FC73A3F5F8731B68D3F84C31184695
:1024B000FDF7BAFF02460B4650465946FEF70CF8A8
:1024C00002460B4620462946FDF74EFE02460B46C5
:1024D00014461D4607F5FC73A3F5F8731B68D3F883
:1024E00050311846FDF7A0FF02460B46204629460C
:1024F000FDF73CFE02460B4610461946FEF7E4FA8D
:10250000024607F5FC73A3F5F8731B68C3F8602156
:1025100007F5FC73A3F5F8731B68D3F8543118461C
:10252000FDF782FF4FF000024FF0804308F0A4FA5D
:1025300004460D4607F5FC73A3F5F8731B68D3F842
:1025400058311846FDF770FF4FF000024FF08043FE
:1025500008F092FA02460B4620462946FDF706FE91
:1025600002460B4614461D4607F5FC73A3F5F873A7
:102570001B68D3F85C311846FDF756FF4FF0000298
:102580004FF0804308F078FA02460B462046294671
:10259000FDF7ECFD02460B4614461D4607F5FC739D
:1025A000A3F5F8731B68D3F860311846FDF73CFFBC
:1025B0004FF000024FF0804308F05EFA02460B46EF
:1025C00020462946FDF7D2FD02460B461046194625
:1025D00008F0BAFA02E000BF0000E03F02460B46F6
:1025E00010461946FEF770FA0346C7F83C3107F566
:1025F000FC73A3F5F8731B68D3F85431D7F83C216A
:1026000011461846FEF772FC03461A4607F5FC739E
:10261000A3F5F8731B68C3F8542107F5FC73A3F501
:10262000F8731B68D3F85831D7F83C211146184687
:10263000FEF75CFC03461A4607F5FC73A3F5F87336
:102640001B68C3F8582107F5FC73A3F5F8731B68E2
:10265000D3F85C31D7F83C2111461846FEF746FC0A
:1026600003461A4607F5FC73A3F5F8731B68C3F815
:102670005C2107F5FC73A3F5F8731B68D3F8603190
:10268000D7F83C2111461846FEF730FC03461A469F
:1026900007F5FC73A3F5F8731B68C3F860210023EA
:1026A00087F8F73123E0002387F8F63114E097F933
:1026B000F72197F9F631920013449B0003F5FC7360
:1026C0003B444FF0000243F8FC2C97F9F631DBB2A3
:1026D0000133DBB287F8F63197F9F631032BE6DDEB
:1026E00097F9F731DBB20133DBB287F8F73197F9AD
:1026F000F731032BD7DD4FF07E53C7F8503107F584
:10270000FC73A3F5FA731B68DB6883F0004207F5DE
:10271000FC73A3F5B0731B6819461046FEF732FB35
:1027200003464FF080411846FEF7E0FB0346C7F82A
:10273000543107F5FC73A3F5FA731B681B6983F02A
:10274000004207F5FC73A3F5B0731B6819461046E9
:10275000FEF718FB03464FF080411846FEF7C6FB14
:102760000346C7F8583107F5FC73A3F5FA731B68E5
:102770005B6983F0004207F5FC73A3F5B0731B6837
:1027800019461046FEF7FEFA03464FF08041184600
:10279000FEF7ACFB0346C7F85C3107F5FC73A3F505
:1027A000FA731B68DA6807F5FC73A3F5B0731B684E
:1027B00019461046FEF7E6FA03464FF080411846E8
:1027C000FEF794FB0346C7F860314FF07E53C7F81D
:1027D000643107F5FC73A3F5FA731B685A6907F5B2
:1027E000FC73A3F5B0731B6819461046FEF7CAFACE
:1027F00003464FF080411846FEF778FB0346C7F8C2
:10280000683107F5FC73A3F5FA731B681B6983F045
:10281000004207F5FC73A3F5B0731B681946104618
:10282000FEF7B0FA03464FF080411846FEF75EFB14
:102830000346C7F86C3107F5FC73A3F5FA731B6800
:102840001A6907F5FC73A3F5B0731B6819461046A7
:10285000FEF798FA03464FF080411846FEF746FB14
:102860000346C7F8703107F5FC73A3F5FA731B68CC
:102870005B6983F0004207F5FC73A3F5B0731B6836
:1028800019461046FEF77EFA03464FF0804118467F
:10289000FEF72CFB0346C7F874314FF07E53C7F8A0
:1028A000783107F5FC73A3F5FA731B68DA6807F54E
:1028B000FC73A3F5B0731B6819461046FEF762FA65
:1028C00003464FF080411846FEF710FB0346C7F859
:1028D0007C3107F5FC73A3F5FA731B685A6907F599
:1028E000FC73A3F5B0731B6819461046FEF74AFA4D
:1028F00003464FF080411846FEF7F8FA0346C7F842
:10290000803107F5FC73A3F5FA731B681A6907F5A4
:10291000FC73A3F5B0731B6819461046FEF732FA34
:1029200003464FF080411846FEF7E0FA0346C7F829
:10293000843107F5FC73A3F5FA731B68DB6883F039
:10294000004207F5FC73A3F5B0731B6819461046E7
:10295000FEF718FA03464FF080411846FEF7C6FA14
:102960000346C7F888314FF07E53C7F88C3107F51E
:10297000FC73A3F5D4731D4607F5A8740FCC0FC5DF
:102980000FCC0FC50FCC0FC594E80F0085E80F00E2
:102990004FF07E53C7F8903107F5FC73A3F5FA7337
:1029A0001B68DA6807F5FC73A3F5B0731B6819465A
:1029B0001046FEF7E7F903464FF080411846FEF750
:1029C00095FA0346C7F8943107F5FC73A3F5FA733B
:1029D0001B681A6907F5FC73A3F5B0731B681946E9
:1029E0001046FEF7CFF903464FF080411846FEF738
:1029F0007DFA0346C7F8983107F5FC73A3F5FA731F
:102A00001B685A6907F5FC73A3F5B0731B68194678
:102A10001046FEF7B7F903464FF080411846FEF71F
:102A200065FA0346C7F89C3107F5FC73A3F5FA7302
:102A30001B68DB6883F0004207F5FC73A3F5B073F5
:102A40001B6819461046FEF79DF903464FF080417A
:102A50001846FEF74BFA0346C7F8A0314FF07E53F5
:102A6000C7F8A43107F5FC73A3F5FA731B685B691B
:102A700083F0004207F5FC73A3F5B0731B68194699
:102A80001046FEF77FF903464FF080411846FEF7E7
:102A90002DFA0346C7F8A83107F5FC73A3F5FA73BE
:102AA0001B681A6907F5FC73A3F5B0731B68194618
:102AB0001046FEF767F903464FF080411846FEF7CF
:102AC00015FA0346C7F8AC3107F5FC73A3F5FA73A2
:102AD0001B681B6983F0004207F5FC73A3F5B07314
:102AE0001B6819461046FEF74DF903464FF080412A
:102AF0001846FEF7FBF90346C7F8B03107F5FC733B
:102B0000A3F5FA731B685A6907F5FC73A3F5B07354
:102B10001B6819461046FEF735F903464FF0804111
:102B20001846FEF7E3F90346C7F8B4314FF07E5379
:102B3000C7F8B83107F5FC73A3F5FA731B68DB68B7
:102B400083F0004207F5FC73A3F5B0731B681946C8
:102B50001046FEF717F903464FF080411846FEF77E
:102B6000C5F90346C7F8BC3107F5FC73A3F5FA7342
:102B70001B685B6983F0004207F5FC73A3F5B07333
:102B80001B6819461046FEF7FDF803464FF08041DA
:102B90001846FEF7ABF90346C7F8C03107F5FC73DA
:102BA000A3F5FA731B681B6983F0004207F5FC73F9
:102BB000A3F5B0731B6819461046FEF7E3F8034609
:102BC0004FF080411846FEF791F90346C7F8C4312B
:102BD00007F5FC73A3F5FA731B68DA6807F5FC7355
:102BE000A3F5B0731B6819461046FEF7CBF80346F1
:102BF0004FF080411846FEF779F90346C7F8C8310F
:102C00004FF07E53C7F8CC3107F5FC73A3F5F4738E
:102C10001D4607F5C8740FCC0FC50FCC0FC50FCCE0
:102C20000FC594E80F0085E80F00002387F8F53101
:102C30004FE0002387F8F43140E0002387F8F331B8
:102C400031E097F9F51197F9F32107F5FC73A3F536
:102C5000D47389000A4453F8220097F9F31197F9C5
:102C6000F42107F5FC73A3F5F8731B6889000A4487
:102C7000203253F8223097F9F55197F9F44119466B
:102C8000FEF780F803461A46AB0023449B0003F589
:102C9000FC733B4443F8FC2C97F9F331DBB201336E
:102CA000DBB287F8F33197F9F331032BC9DD97F9DC
:102CB000F431DBB20133DBB287F8F43197F9F43148
:102CC000032BBADD97F9F531DBB20133DBB287F8BC
:102CD000F53197F9F531032BABDD002387F8F2319D
:102CE0004DE0002387F8F1313EE0002387F8F03112
:102CF0002FE097F9F22197F9F031920013449B00ED
:102D000003F5FC733B4453F8FC0C97F9F01197F969
:102D1000F12107F5FC73A3F5F47389000A4453F815
:102D2000223097F9F25197F9F1411946FEF72AF846
:102D300003461A46AB0023449B0003F5FC733B4457
:102D400043F8FC2C97F9F031DBB20133DBB287F8A2
:102D5000F03197F9F031032BCBDD97F9F131DBB28C
:102D60000133DBB287F8F13197F9F131032BBCDD88
:102D700097F9F231DBB20133DBB287F8F23197F920
:102D8000F231032BADDD002387F8EF313FE0002364
:102D900087F8EE3130E097F9EF1197F9EE2107F55A
:102DA000FC73A3F5F8731B6889000A4453F82200EA
:102DB00097F9EF2197F9EE31920013449B0003F548
:102DC000FC733B4453F8FC3C97F9EF5197F9EE4103
:102DD0001946FDF7CFFE03461A46AB0023449B007D
:102DE00003F5FC733B4443F8FC2C97F9EE31DBB25E
:102DF0000133DBB287F8EE3197F9EE31032BCADDF0
:102E000097F9EF31DBB20133DBB287F8EF3197F995
:102E1000EF31032BBBDD002387F8ED312FE00023DA
:102E200087F8EC3120E097F9ED1197F9EC3197F93B
:102E3000ED0197F9EC2189000B449B0003F5FC732D
:102E40003B4453F8FC1C07F5FC73A3F5F8731B68AF
:102E500080000244303243F8221097F9EC31DBB2A3
:102E60000133DBB287F8EC3197F9EC31032BDADD73
:102E700097F9ED31DBB20133DBB287F8ED3197F929
:102E8000ED31032BCBDD002387F8EB3140E000234D
:102E900087F8EA3131E097F9EB1197F9EA2107F564
:102EA000FC73A3F5F8731B6889000A44103253F8C9
:102EB000220097F9EB2197F9EA31920013449B0025
:102EC00003F5FC733B4453F8FC3C97F9EB5197F93D
:102ED000EA411946FDF74EFE03461A46AB0023446D
:102EE0009B0003F5FC733B4443F8FC2C97F9EA3153
:102EF000DBB20133DBB287F8EA3197F9EA31032B11
:102F0000C9DD97F9EB31DBB20133DBB287F8EB3186
:102F100097F9EB31032BBADD002387F8E93123E081
:102F2000002387F8E83114E097F9E91197F9E821CF
:102F300007F5FC73A3F59E7389000A444FF0000166
:102F400043F8221097F9E831DBB20133DBB287F89E
:102F5000E83197F9E831032BE6DD97F9E931DBB287
:102F60000133DBB287F8E93197F9E931032BD7DD7B
:102F700007F1BC0207F1FC031146184600F09CFE65
:102F8000034687F8D33197F9D331142B5ED1002350
:102F900087F8E73152E0002387F8E63143E0002369
:102FA00087F8E53134E097F9E71197F9E52107F55E
:102FB000FC73A3F5F8731B6889000A44303253F898
:102FC000220097F9E51197F9E62107F5FC73A3F5BF
:102FD0009E7389000A4453F8223097F9E75197F914
:102FE000E6411946FDF7CEFE0346194607F5FC7388
:102FF000A3F5F8731A68AB00234440339B001344D5
:10300000596097F9E531DBB20133DBB287F8E5317E
:1030100097F9E531032BC6DD97F9E631DBB20133D1
:10302000DBB287F8E63197F9E631032BB7DD97F984
:10303000E731DBB20133DBB287F8E73197F9E731EB
:10304000032BA8DD012387F8D23131E0002387F874
:10305000E43126E0002387F8E33117E097F9E41123
:1030600097F9E33107F5FC72A2F5F872126889004E
:103070000B4440339B0013444FF000025A6097F911
:10308000E331DBB20133DBB287F8E33197F9E331A7
:10309000032BE3DD97F9E431DBB20133DBB287F8D0
:1030A000E43197F9E431032BD4DDD32387F8D2310F
:1030B000002387F8E23110E097F9E22107F5FC736D
:1030C000A3F5A6734FF0000143F8221097F9E231FF
:1030D000DBB20133DBB287F8E23197F9E231032B3F
:1030E000EADD002387F8E13110E097F9E12107F5E7
:1030F000FC73A3F5AE734FF0000143F8221097F96B
:10310000E131DBB20133DBB287F8E13197F9E1312C
:10311000032BEADD002387F8E03129E097F9E0315D
:1031200007F5FC72A2F5F872126858339B0013443D
:10313000586897F9E03107F5FC72A2F5F872126849
:1031400054339B0013445B6897F9E0411946FDF73F
:103150000FFD03461A4607F5FC73A3F5A67343F863
:10316000242097F9E031DBB20133DBB287F8E0319C
:1031700097F9E031032BD1DD002387F8DF3146E0FA
:10318000002387F8DE3137E097F9DF1197F9DE3158
:1031900007F5FC72A2F5F872126889000B444033FF
:1031A0009B001344586897F9DE2107F5FC73A3F5DB
:1031B000A67353F822301946FDF7E4FD034618467E
:1031C00097F9DF2107F5FC73A3F5AE7353F82230AE
:1031D00097F9DF411946FDF7CDFC03461A4607F57E
:1031E000FC73A3F5AE7343F8242097F9DE31DBB20C
:1031F0000133DBB287F8DE3197F9DE31032BC3DD13
:1032000097F9DF31DBB20133DBB287F8DF3197F9B1
:10321000DF31032BB4DD002387F8DD3123E097F99C
:10322000DD2107F5FC73A3F5A6734FF0000143F809
:10323000221097F9DD3197F9DD2107F5FC71A1F531
:10324000F871096854339B000B44596807F5FC7307
:10325000A3F5A67343F8221097F9DD31DBB20133F1
:10326000DBB287F8DD3197F9DD31032BD7DD0023A1
:1032700087F8DC3123E097F9DC2107F5FC73A3F52F
:10328000A6734FF0000143F8221097F9DC3197F94B
:10329000DC2107F5FC71A1F5F871096854339B0036
:1032A0000B44596807F5FC73A3F5A67343F8221085
:1032B00097F9DC31DBB20133DBB287F8DC3197F907
:1032C000DC31032BD7DD002387F8DB3127E097F9CA
:1032D000DB2107F5FC73A3F5A67353F8220097F9D9
:1032E000DB2107F5FC73A3F5AE7353F8223097F991
:1032F000DB411946FDF73EFC0346194607F5FC7312
:10330000A3F5F8731A6804F150039B001344596045
:1033100097F9DB31DBB20133DBB287F8DB3197F9A8
:10332000DB31032BD3DD002387F8DA314BE00023B8
:1033300087F8D9313CE097F9DA2197F9D931920031
:1033400013449B0003F5FC733B444FF0000243F829
:10335000FC2C97F9DA1197F9D92107F5FC73A3F53D
:103360009E7389000A444FF0000143F8221097F938
:10337000DA4197F9D90197F9DA1197F9D93107F5B7
:10338000FC72A2F5F8721268A4002044303052F8A2
:10339000202089000B449B0003F5FC733B4443F859
:1033A000FC2C97F9D931DBB20133DBB287F8D93184
:1033B00097F9D931032BBEDD97F9DA31DBB201334E
:1033C000DBB287F8DA3197F9DA31032BAFDD00236E
:1033D00087F8D83150E0002387F8D73141E0002347
:1033E00087F8D63132E097F9D81197F9D63107F539
:1033F000FC72A2F5F872126889000B4440339B00FE
:103400001344586897F9D62197F9D731920013449D
:103410009B0003F5FC733B4453F8FC3C97F9D851EF
:1034200097F9D7411946FDF7ADFC0346194607F554
:10343000FC73A3F59E73AA00224443F8221097F967
:10344000D631DBB20133DBB287F8D63197F9D6310A
:10345000032BC8DD97F9D731DBB20133DBB287F834
:10346000D73197F9D731032BB9DD97F9D831DBB2D2
:103470000133DBB287F8D83197F9D831032BAADDB5
:10348000002387F8D53142E0002387F8D43133E0B8
:1034900097F9D51197F9D42107F5FC73A3F5F873C3
:1034A0001B6889000A44303253F8220097F9D5117D
:1034B00097F9D42107F5FC73A3F59E7389000A449C
:1034C00053F8223097F9D55197F9D4411946FDF7B1
:1034D0004FFB0346194607F5FC73A3F5F8731B6809
:1034E000AA002244203243F8221097F9D431DBB2EB
:1034F0000133DBB287F8D43197F9D431032BC7DD20
:1035000097F9D531DBB20133DBB287F8D53197F9C2
:10351000D531032BB8DD07F5FC73A3F5F8731B68F1
:10352000D3F844311846FCF77FFF4FF000024FF00C
:10353000804307F0A1FA04460D4607F5FC73A3F596
:10354000F8731B68D3F848311846FCF76DFF4FF04D
:1035500000024FF0804307F08FFA02460B462046E8
:103560002946FCF703FE02460B4614461D4607F5A6
:10357000FC73A3F5F8731B68D3F84C311846FCF7BD
:1035800053FF4FF000024FF0804307F075FA0246F8
:103590000B4620462946FCF7E9FD02460B46144639
:1035A0001D4607F5FC73A3F5F8731B68D3F850317B
:1035B0001846FCF739FF4FF000024FF0804307F048
:1035C0005BFA02460B4620462946FCF7CFFD024631
:1035D0000B461046194607F0B7FA02460B4610464E
:1035E0001946FDF771FA0346C7F8443107F5FC7335
:1035F000A3F5F8731B68D3F84431D7F8442111467A
:103600001846FDF773FC03461A4607F5FC73A3F54D
:10361000F8731B68C3F8442107F5FC73A3F5F8732E
:103620001B68D3F84831D7F8442111461846FDF7F6
:103630005DFC03461A4607F5FC73A3F5F8731B6897
:10364000C3F8482107F5FC73A3F5F8731B68D3F89A
:103650004C31D7F8442111461846FDF747FC034684
:103660001A4607F5FC73A3F5F8731B68C3F84C21E1
:1036700007F5FC73A3F5F8731B68D3F85031D7F83E
:10368000442111461846FDF731FC03461A4607F55A
:10369000FC73A3F5F8731B68C3F8502107F5FC739E
:1036A000A3F5F8731B68D3F84C2107F5FC73A3F559
:1036B000F8731B68D3F8503119461046FDF762FBCA
:1036C00003461C4607F5FC73A3F5F8731B68D3F893
:1036D000442107F5FC73A3F5F8731B68D3F8483150
:1036E00019461046FDF74EFB034619462046FDF7E6
:1036F00041FA034619461846FDF73CFA03461846B8
:10370000FCF792FE04460D4607F5FC73A3F5F8732B
:103710001B68D3F848311846FCF786FE4FF00002CC
:103720004FF0804307F0A8F982468B4607F5FC73FB
:10373000A3F5F8731B68D3F84C311846FCF774FEF8
:103740004FF000024FF0804307F096F902460B4617
:1037500050465946FCF70AFD02460B4610461946EC
:1037600002460B46FCF702FD02460B464FF00000F6
:103770003B49FCF7F9FC02460B462046294607F078
:1037800079F902460B46904683F0004932A3D3E90B
:10379000002340464946FCF79FFE02460B46104672
:1037A0001946FDF791F9024607F5FC73A3F5FA7384
:1037B0001B68DA6207F5FC73A3F5F8731B68D3F88E
:1037C000482107F5FC73A3F5F8731B68D3F8503153
:1037D00019461046FDF7D6FA03461C4607F5FC735A
:1037E000A3F5F8731B68D3F8442107F5FC73A3F520
:1037F000F8731B68D3F84C3119461046FDF7C2FA2E
:10380000034619462046FDF7B3F903461946184604
:10381000FDF7B0F903461846FCF706FE02460B46D4
:103820001046194607F0FEF80BA3D3E90023FCF776
:1038300053FE02460B4610461946FDF745F902466F
:1038400007F5FC73A3F5FA731B681A6300BF07F54D
:10385000FC77BD46BDE8B08FB0CB631ADCA54C4009
:103860000000F03F80B588B004AF786001230A22E1
:10387000D021786801F0A0FC0346FB73012302937A
:10388000012301930023009301236B22D021786848
:1038900001F024F90346BB73012302930123019332
:1038A0000023009301231A22D021786801F016F931
:1038B00003467B73012302930123019300230093AA
:1038C00001231922D021786801F008F903463B73DF
:1038D00001230293012301930023009301231B2260
:1038E000D021786801F0FAF80346FB7201230293B5
:1038F000012301930023009301231C22D021786827
:1039000001F0ECF80346BB72FB7B002B10D17B7BF4
:10391000002B0DD13B7B002B0AD1FB7A002B07D16A
:10392000BB7A002B04D1BB7B002B01D1002300E02C
:10393000012318461037BD4680BD80B588B004AF5E
:10394000786039604FF0FF3302930123019307F150
:103950000F03009301233B22D021786801F0B8F9CE
:103960004FF0FF3302930123019307F10E030093FD
:1039700001233C22D021786801F0AAF9FB7B1B02CD
:103980009BB2BA7B13449BB21AB23B681A804FF0C9
:10399000FF3302930123019307F10F0300930123E7
:1039A0003D22D021786801F093F94FF0FF33029364
:1039B0000123019307F10E03009301233E22D0213E
:1039C000786801F085F9FB7B1B029BB2BA7B13443C
:1039D0009AB23B68023312B21A804FF0FF3302935F
:1039E0000123019307F10F03009301233F22D0210C
:1039F000786801F06DF94FF0FF33029301230193D2
:103A000007F10E03009301234022D021786801F0D2
:103A10005FF9FB7B1B029BB2BA7B13449AB23B68F3
:103A2000043312B21A8000BF1037BD4680BD0000BB
:103A300080B584B000AF7860396007F1080319469B
:103A40007868FFF77AFFB7F90830A3F2FA3318461F
:103A5000FDF744F903461846FCF7E6FC22A3D3E938
:103A60000023FCF739FD02460B4610461946FDF7C8
:103A70002BF802463B681A60B7F90A303233184611
:103A8000FDF72CF903461846FCF7CEFC18A3D3E942
:103A90000023FCF721FD02460B4610461946FDF7B0
:103AA00013F802463B685A60B7F90C30A3F2DA7398
:103AB0001846FDF713F903461846FCF7B5FC0EA3AC
:103AC000D3E90023FCF708FD02460B4610461946D1
:103AD000FCF7FAFF02463B689A6000BF1037BD460C
:103AE00080BD00BFAFF30080728598C77112103F90
:103AF0007CAC09375300103FF03A559D593B0F3FBE
:103B000080B588B004AF786039604FF0FF3302931E
:103B10000123019307F10F03009301234322D021D6
:103B2000786801F0D5F84FF0FF3302930123019339
:103B300007F10E03009301234422D021786801F09D
:103B4000C7F8FB7B1B029BB2BA7B13449BB21AB231
:103B50003B681A804FF0FF3302930123019307F172
:103B60000F03009301234522D021786801F0B0F8BB
:103B70004FF0FF3302930123019307F10E030093EB
:103B800001234622D021786801F0A2F8FB7B1B02BA
:103B90009BB2BA7B13449AB23B68023312B21A80CA
:103BA0004FF0FF3302930123019307F10F030093BA
:103BB00001234722D021786801F08AF84FF0FF33C3
:103BC00002930123019307F10E030093012348227E
:103BD000D021786801F07CF8FB7B1B029BB2BA7B9A
:103BE00013449AB23B68043312B21A8000BF1037F4
:103BF000BD4680BD0000000080B584B000AF786095
:103C0000396007F1080319467868FFF779FFB7F9BB
:103C10000830A3F299231846FDF760F803461846CA
:103C2000FCF702FC22A3D3E90023FCF755FC024673
:103C30000B4610461946FCF747FF02463B68DA6020
:103C4000B7F90A304F3B1846FDF748F803461846C7
:103C5000FCF7EAFB16A3D3E90023FCF73DFC024680
:103C60000B4610461946FCF72FFF02463B681A61C7
:103C7000B7F90C30A3F580731846FDF72FF803460B
:103C80001846FCF7D1FB0AA3D3E90023FCF724FC78
:103C900002460B4610461946FCF716FF02463B68E3
:103CA0005A6100BF1037BD4680BD00BFAFF3008032
:103CB00001B8A3497375213F90B5A9B000AF7860F2
:103CC00039600023C7F89C303CE00023C7F89830E7
:103CD0002FE0D7F89C301B017A681344D7F898205E
:103CE00053F82220D7F89C30D900D7F898300B44ED
:103CF0009B00A0333B4443F8942CD7F89C20D7F882
:103D000098309A4202D14FF07E5201E04FF000020B
:103D1000D7F898300433D7F89C10C9000B449B00A7
:103D2000A0333B4443F8942CD7F898300133C7F8BC
:103D30009830D7F89830032BCBDDD7F89C3001337F
:103D4000C7F89C30D7F89C30032BBEDD0023C7F8A2
:103D50009C30AEE0D7F89C201346DB0013449B0058
:103D6000A0333B44943B1B6823F000431846FCF708
:103D70005BFB6DA3D3E90023FCF720FE0346002B79
:103D800002D06FF02C03C9E0D7F89C201346DB006B
:103D900013449B00A0333B44943B1B68C7F890300E
:103DA0000023C7F8983021E0D7F89C30DA00D7F824
:103DB000983013449B00A0333B4453F8943CD7F80D
:103DC00090101846FDF792F803461946D7F89C3034
:103DD000DA00D7F8983013449B00A0333B4443F8F3
:103DE000941CD7F898300133C7F89830D7F898303A
:103DF000072BD9DD0023C7F8943051E0D7F8942081
:103E0000D7F89C309A4246D0D7F89430DA00D7F8E9
:103E10009C3013449B00A0333B4453F8943CC7F8B8
:103E20008C300023C7F8983031E0D7F89430DA00AE
:103E3000D7F8983013449B00A0333B4453F8944C7C
:103E4000D7F89C30DA00D7F8983013449B00A033A1
:103E50003B4453F8943CD7F88C101846FCF792FF7B
:103E6000034619462046FCF783FE03461946D7F859
:103E70009430DA00D7F8983013449B00A0333B44C9
:103E800043F8941CD7F898300133C7F89830D7F826
:103E90009830072BC9DDD7F894300133C7F8943038
:103EA000D7F89430032BA9DDD7F89C300133C7F83D
:103EB0009C30D7F89C30032B7FF74CAF0023C7F81A
:103EC0009C3026E00023C7F8983019E0D7F89830E6
:103ED0000433D7F89C20120139680A44D7F89C10A3
:103EE000C9000B449B00A0333B4453F8941CD7F803
:103EF000983042F82310D7F898300133C7F898303B
:103F0000D7F89830032BE1DDD7F89C300133C7F8A0
:103F10009C30D7F89C30032BD4DD14231846A437EB
:103F2000BD4690BDAFF3008095D626E80B2E113E1E
:103F300080B485B000AF154B9B69144A43F0010370
:103F40009361124B9B6903F00103BB60BB680F4B8D
:103F5000DB690E4A43F08053D3610C4BDB6903F0FD
:103F600080537B607B680A4B5B68FB60FB6823F0D7
:103F7000E063FB60FB6843F00073FB60044AFB688E
:103F8000536000BF1437BD4680BC7047001002402C
:103F90000000014080B588B000AF786007F11003E1
:103FA00000221A605A609A60DA607B681B68164AC1
:103FB000934224D1154B9B69144A43F00803936143
:103FC000124B9B6903F00803FB60FB684FF44063EE
:103FD0003B6112237B610323FB6107F11003194648
:103FE0000B4800F09BFA094BDB69084A43F4800355
:103FF000D361064BDB6903F48003BB60BB6800BF81
:104000002037BD4680BD00BF005800400010024070
:10401000000C014080B400AF00BFFDE780B400AFEA
:1040200000BFFDE780B400AF00BFFDE780B400AF84
:1040300000BFFDE780B400AF00BFFDE780B400AF74
:1040400000BFBD4680BC704780B400AF00BFBD4616
:1040500080BC704780B400AF00BFBD4680BC7047D5
:1040600080B500AF00F036F900BF80BD80B400AF6E
:1040700001231846BD4680BC704780B582B000AFB2
:104080007860396003F054F9034616221A604FF045
:10409000FF3318460837BD4680BD80B582B000AFFB
:1040A00078604FF0FF317868FFF7E7FF00BFFDE76A
:1040B00080B586B000AFF860B9607A6000237B619C
:1040C0000AE0AFF300800146BB685A1CBA60CAB26E
:1040D0001A707B6901337B617A697B689A42F0DBF5
:1040E0007B6818461837BD4680BD80B586B000AFE6
:1040F000F860B9607A6000237B6109E0BB685A1CF4
:10410000BA601B781846AFF300807B6901337B618E
:104110007A697B689A42F1DB7B6818461837BD469E
:1041200080BD80B483B000AF78604FF0FF33184695
:104130000C37BD4680BC704780B483B000AF786058
:1041400039603B684FF400525A60002318460C3720
:10415000BD4680BC704780B483B000AF7860012357
:1041600018460C37BD4680BC704780B485B000AFA0
:10417000F860B9607A60002318461437BD4680BCE9
:104180007047000080B586B000AF7860144A154BC8
:10419000D31A7B617B693B61134B1B68002B02D1F7
:1041A000114B124A1A60104B1A687B6813443A6923
:1041B0009A4207D203F0BCF803460C221A604FF073
:1041C000FF3309E0084B1B68FB60074B1A687B68EC
:1041D0001344054A1360FB6818461837BD4680BD76
:1041E00000500020000400004C040020A005002026
:1041F00080B400AF00BFBD4680BC7047FFF7F8FF3A
:104200000B480C490C4A002302E0D458C450043334
:10421000C4188C42F9D3094A094C002301E0136009
:104220000432A242FBD303F089F8FDF7F5F870479A
:104230000000002084030020F8D700088403002039
:10424000A0050020FEE7000080B500AF084B1B680A
:10425000074A43F010031360032000F02BF90F20EE
:1042600000F008F8FFF764FE0023184680BD00BF89
:104270000020024080B582B000AF7860124B1A680F
:10428000124B1B7819464FF47A73B3FBF1F3B2FB70
:10429000F3F3184600F035F90346002B01D0012353
:1042A0000EE07B680F2B0AD8002279684FF0FF30B0
:1042B00000F00BF9064A7B681360002300E001233D
:1042C00018460837BD4680BDB0010020B801002067
:1042D000B401002080B400AF054B1B781A46054B93
:1042E0001B681344034A136000BFBD4680BC70477F
:1042F000B80100205004002080B400AF024B1B68BE
:104300001846BD4680BC70475004002080B584B07C
:1043100000AF7860FFF7F0FFB8607B68FB60FB6878
:10432000B3F1FF3F05D00A4B1B781A46FB681344D4
:10433000FB6000BFFFF7E0FF0246BB68D31AFA68D4
:104340009A42F7D800BF00BF1037BD4680BD00BFFE
:10435000B801002080B485B000AF78607B6803F0BE
:104360000703FB600C4BDB68BB60BA684FF6FF03CA
:104370001340BB60FB681A02BB68134343F0BF6382
:1043800043F40033BB60044ABB68D36000BF1437FA
:10439000BD4680BC704700BF00ED00E080B400AFB8
:1043A000044BDB681B0A03F007031846BD4680BCBC
:1043B000704700BF00ED00E080B483B000AF03465B
:1043C0003960FB7197F90730002B0ADB3B68DAB2E2
:1043D0000C4997F907301201D2B20B4483F800233D
:1043E0000AE03B68DAB20849FB7903F00F03043BAB
:1043F0001201D2B20B441A7600BF0C37BD4680BC06
:10440000704700BF00E100E000ED00E080B489B03B
:1044100000AFF860B9607A60FB6803F00703FB61E6
:10442000FB69C3F10703042B28BF0423BB61FB69AD
:104430000433062B02D9FB69033B00E000237B61B8
:104440004FF0FF32BB6902FA03F3DA43BB681A404C
:104450007B699A404FF0FF317B6901FA03F3D9433E
:104460007B680B40134318462437BD4680BC704719
:1044700080B582B000AF78607B68013BB3F1807F8C
:1044800001D301230FE00A4A7B68013B53600F21EF
:104490004FF0FF30FFF790FF054B00229A60044B6E
:1044A00007221A60002318460837BD4680BD00BFAA
:1044B00010E000E080B582B000AF78607868FFF768
:1044C00049FF00BF0837BD4680BD80B586B000AF4C
:1044D0000346B9607A60FB7300237B61FFF75EFFE0
:1044E00078617A68B9687869FFF790FF024697F9B2
:1044F0000F3011461846FFF75FFF00BF1837BD4663
:1045000080BD80B582B000AF78607868FFF7B0FFFB
:10451000034618460837BD4680BD000080B48BB006
:1045200000AF7860396000237B6200233B6269E161
:1045300001227B6A02FA03F3FB613B681B68FA699C
:104540001340BB61BA69FB699A4240F058813B68ED
:104550005B689A4A93425ED0984A934275D8984ACB
:10456000934258D0964A93426FD8964A934252D07B
:10457000944A934269D8944A93424CD0924A9342C7
:1045800063D8924A934246D0904A93425DD8122B08
:104590002AD8122B59D801A252F823F01746000846
:1045A000F145000803460008454600084B46000850
:1045B0004B4600084B4600084B4600084B46000897
:1045C0004B4600084B4600084B4600084B46000887
:1045D0004B4600084B4600084B4600084B46000877
:1045E000F94500080D460008794A934213D02CE0A3
:1045F0003B68DB683B6229E03B68DB6804333B6275
:1046000024E03B68DB6808333B621FE03B68DB6803
:104610000C333B621AE03B689B68002B02D10423F9
:104620003B6213E03B689B68012B05D108233B628A
:104630007B68FA691A6109E008233B627B68FA69C2
:104640005A6103E000233B6200E000BFBB69FF2B1F
:1046500001D87B6801E07B6804337B61BB69FF2B79
:1046600002D87B6A9B0002E07B6A083B9B003B61AF
:104670007B691A680F213B6901FA03F3DB431A4097
:10468000396A3B6901FA03F31A437B691A603B6894
:104690005B6803F08053002B00F0B1804D4B9B69A9
:1046A0004C4A43F0010393614A4B9B6903F00103B9
:1046B000BB60BB68484A7B6A9B08023352F82330D0
:1046C000FB607B6A03F003039B000F2202FA03F3F3
:1046D000DB43FA681340FB607B68404A934213D087
:1046E0007B683F4A93420DD07B683E4A934207D095
:1046F0007B683D4A934201D1032306E0042304E092
:10470000022302E0012300E000237A6A02F00302A0
:1047100092009340FA681343FB602F497B6A9B0821
:104720000233FA6841F823203B685B6803F4801386
:10473000002B06D02D4B9A682C49BB6913438B6024
:1047400006E02A4B9A68BB69DB43284913408B601B
:104750003B685B6803F40013002B06D0234BDA6838
:104760002249BB691343CB6006E0204BDA68BB6982
:10477000DB431E491340CB603B685B6803F40033A6
:10478000002B06D0194B5A681849BB6913434B607C
:1047900006E0164B5A68BB69DB43144913404B6073
:1047A0003B685B6803F48033002B21D00F4B1A6801
:1047B0000E49BB6913430B6021E000BF00003210BB
:1047C0000000311000002210000021100000121023
:1047D00000001110001002400000014000080140DC
:1047E000000C014000100140001401400004014091
:1047F0000B4B1A68BB69DB43094913400B607B6AAA
:1048000001337B623B681A687B6A22FA03F3002B50
:104810007FF48EAE00BF00BF2C37BD4680BC704712
:104820000004014080B483B000AF78600B467B8009
:1048300013467B707B78002B03D07A887B681A61E3
:1048400003E07B881A047B681A6100BF0C37BD4601
:1048500080BC704780B584B000AF78607B68002B67
:1048600001D101232BE17B6893F83D30DBB2002BB3
:1048700006D17B68002283F83C207868FFF78AFB2A
:104880007B68242283F83D207B681B681A687B685C
:104890001B6822F001021A607B681B681A687B683B
:1048A0001B6842F400421A607B681B681A687B68C8
:1048B0001B6822F400421A6001F02AFDF8607B6850
:1048C0005B68814A934207D8FB68804A934294BF51
:1048D00001230023DBB206E0FB687D4A934294BFCC
:1048E00001230023DBB2002B01D00123E7E0FB68AA
:1048F000784AA2FB03239B0CBB607B681B685B6848
:1049000023F03F017B681B68BA680A435A607B68E2
:104910001B681B6A23F03F017B685B686A4A93420D
:1049200002D8BB68013309E0BB684FF4967202FB02
:1049300003F3694AA2FB03239B0901337A681268D7
:104940000B4313627B681B68DB6923F44F4222F040
:10495000FF027B685B685C498B4219D8FB68591E73
:104960007B685B685B00B1FBF3F3591C40F6FC739A
:104970000B40002B0AD0FB68591E7B685B685B000C
:10498000B1FBF3F30133C3F30B0351E004234FE016
:104990007B689B68002B11D1FB68581E7B685968A7
:1049A0000B465B000B44B0FBF3F30133C3F30B0383
:1049B000002B0CBF01230023DBB212E0FB68581E62
:1049C0007B6859680B469B000B4499000B44B0FB75
:1049D000F3F30133C3F30B03002B0CBF01230023BC
:1049E000DBB2002B01D0012322E07B689B68002B07
:1049F0000ED1FB68581E7B6859680B465B000B4460
:104A0000B0FBF3F30133C3F30B0343F400430FE0B4
:104A1000FB68581E7B6859680B469B000B44990045
:104A20000B44B0FBF3F30133C3F30B0343F44043F4
:104A3000796809681343CB617B681B681B6823F0A6
:104A4000C0017B68DA697B681B6A1A437B681B6854
:104A50000A431A607B681B689B6823F4034323F0B6
:104A6000FF037A6811697A68D26811437A6812681C
:104A70000B4393607B681B68DB6823F0FF017B6856
:104A80005A697B689B691A437B681B680A43DA6032
:104A90007B681B681A687B681B6842F001021A6019
:104AA0007B6800221A647B68202283F83D207B68A3
:104AB00000221A637B68002283F83E2000231846F8
:104AC0001037BD4680BD00BFA08601007F841E0058
:104AD000FF083D0083DE1B43D34D621080B588B0D4
:104AE00002AFF860084611461A4603467B810B4622
:104AF0003B811346FB80FFF7FFFB7861FB6893F86F
:104B00003D30DBB2202B40F0D9807B690093192324
:104B100001226D49F86800F0FBFD0346002B01D02F
:104B20000223CCE0FB6893F83C30012B01D1022337
:104B3000C5E0FB68012283F83C20FB681B681B680A
:104B400003F00103012B07D0FB681B681A68FB68A0
:104B50001B6842F001021A60FB681B681A68FB6858
:104B60001B6822F400621A60FB68212283F83D2052
:104B7000FB68402283F83E20FB6800221A64FB6831
:104B80003A6A5A62FB68BA8C5A85FB685B8D9AB2A6
:104B9000FB681A85FB684D4ADA62F8883A89798998
:104BA0007B690193BB6A00930346F86800F032FC0E
:104BB0000346002B52D0012381E07A69B96AF86874
:104BC00000F0C0FE0346002B0DD0FB681B6C042BCD
:104BD00007D1FB681B681A68FB681B6842F4007207
:104BE0001A6001236BE0FB685B6A1A78FB681B683C
:104BF0001A61FB685B6A5A1CFB685A62FB681B8D72
:104C0000013B9AB2FB681A85FB685B8D9BB2013B46
:104C10009AB2FB685A85FB681B685B6903F0040362
:104C2000042B1BD1FB681B8D002B17D0FB685B6A24
:104C30001A78FB681B681A61FB685B6A5A1CFB6880
:104C40005A62FB681B8D013B9AB2FB681A85FB68B0
:104C50005B8D9BB2013B9AB2FB685A85FB681B8D4A
:104C6000002BAAD17A69B96AF86800F0B3FE03464E
:104C7000002B0DD0FB681B6C042B07D1FB681B6855
:104C80001A68FB681B6842F400721A60012316E080
:104C9000FB681B681A68FB681B6842F400721A60A4
:104CA000FB68202283F83D20FB68002283F83E2029
:104CB000FB68002283F83C20002300E00223184612
:104CC0001837BD4680BD00BF020010000000FFFF86
:104CD00080B58CB002AFF860084611461A4603460C
:104CE0007B810B463B811346FB8000233B62FFF731
:104CF00003FB7862FB6893F83D30DBB2202B40F079
:104D000050827B6A0093192301228249F86800F0DF
:104D1000FFFC0346002B01D0022343E2FB6893F81B
:104D20003C30012B01D102233CE2FB68012283F8D5
:104D30003C20FB681B681B6803F00103012B07D0B4
:104D4000FB681B681A68FB681B6842F001021A6066
:104D5000FB681B681A68FB681B6822F400621A6013
:104D6000FB68222283F83D20FB68402283F83E2026
:104D7000FB6800221A64FB683A6B5A62FB68BA8EC1
:104D80005A85FB685B8D9AB2FB681A85FB68624A9C
:104D9000DA62F8883A8979897B6A0193BB6B009360
:104DA0000346F86800F0CCFB0346002B01D001233A
:104DB000F8E1FB681B8D002B13D10023FB61FB681E
:104DC0001B685B69FB61FB681B689B69FB61FB6996
:104DD000FB681B681A68FB681B6842F400721A6063
:104DE000CCE1FB681B8D012B1ED1FB681B681A6888
:104DF000FB681B6822F480621A6072B600BF002351
:104E0000BB61FB681B685B69BB61FB681B689B69D6
:104E1000BB61BB69FB681B681A68FB681B6842F4CE
:104E200000721A6062B635E0FB681B8D022B1ED142
:104E3000FB681B681A68FB681B6842F400621A6012
:104E400072B600BF00237B61FB681B685B697B61F6
:104E5000FB681B689B697B617B69FB681B681A6840
:104E6000FB681B6822F480621A6062B612E0FB687D
:104E70001B681A68FB681B6842F480621A60002392
:104E80003B61FB681B685B693B61FB681B689B6956
:104E90003B613B6972E1FB681B8D032B00F21F81B4
:104EA000FB681B8D012B23D17A6AB96BF86800F07F
:104EB000D9FD0346002B01D0012373E1FB681B6879
:104EC0001A69FB685B6AD2B21A70FB685B6A5A1C8B
:104ED000FB685A62FB681B8D013B9AB2FB681A851E
:104EE000FB685B8D9BB2013B9AB2FB685A8545E13A
:104EF000FB681B8D022B52D17B6A0093BB6B002297
:104F00000649F86800F004FC0346002B08D0012392
:104F100048E100BF020010000000FFFF0400010094
:104F200072B600BFFB681B681A68FB681B6842F416
:104F300000721A60FB681B681A69FB685B6AD2B270
:104F40001A70FB685B6A5A1CFB685A62FB681B8D0F
:104F5000013B9AB2FB681A85FB685B8D9BB2013BF3
:104F60009AB2FB685A8562B600BFFB681B681A6973
:104F7000FB685B6AD2B21A70FB685B6A5A1CFB68FA
:104F80005A62FB681B8D013B9AB2FB681A85FB686D
:104F90005B8D9BB2013B9AB2FB685A85EEE07B6A5F
:104FA0000093BB6B00228149F86800F0B1FB034617
:104FB000002B01D00123F5E0FB681B681A68FB6831
:104FC0001B6822F480621A6072B600BFFB681B681F
:104FD0001A69FB685B6AD2B21A70FB685B6A5A1C7A
:104FE000FB685A62FB681B8D013B9AB2FB681A850D
:104FF000FB685B8D9BB2013B9AB2FB685A856C4B98
:105000001B68DB086B4AA2FB03231A0A13469B00AA
:105010001344DA00D31A3B623B6A013B3B623B6AB2
:10502000002B18D1FB6800221A63FB68202283F84A
:105030003D20FB68002283F83E20FB681B6C43F098
:105040002002FB681A6462B600BFFB68002283F886
:105050003C200123A6E0FB681B685B6903F00403A6
:10506000042BD9D1FB681B681A68FB681B6842F4E3
:1050700000721A60FB681B681A69FB685B6AD2B22F
:105080001A70FB685B6A5A1CFB685A62FB681B8DCE
:10509000013B9AB2FB681A85FB685B8D9BB2013BB2
:1050A0009AB2FB685A8562B600BFFB681B681A6932
:1050B000FB685B6AD2B21A70FB685B6A5A1CFB68B9
:1050C0005A62FB681B8D013B9AB2FB681A85FB682C
:1050D0005B8D9BB2013B9AB2FB685A854EE07A6ABF
:1050E000B96BF86800F0BEFC0346002B01D0012329
:1050F00058E0FB681B681A69FB685B6AD2B21A70D9
:10510000FB685B6A5A1CFB685A62FB681B8D013B9B
:105110009AB2FB681A85FB685B8D9BB2013B9AB221
:10512000FB685A85FB681B685B6903F00403042B6A
:1051300024D1FB681B8D032B07D1FB681B681A6801
:10514000FB681B6822F480621A60FB681B681A699E
:10515000FB685B6AD2B21A70FB685B6A5A1CFB6818
:105160005A62FB681B8D013B9AB2FB681A85FB688B
:105170005B8D9BB2013B9AB2FB685A85FB681B8D25
:10518000002B7FF488AEFB68202283F83D20FB686B
:10519000002283F83E20FB68002283F83C20002395
:1051A00000E0022318462837BD4680BD04000100F8
:1051B000B001002089B5F81480B58AB002AFF8605C
:1051C0007A603B600B467B81FFF796F8F86100231D
:1051D000BB61FB6893F83D30DBB2202B40F01181BE
:1051E000FB690093192301228849F86800F090FABE
:1051F0000346002B01D0022304E1FB6893F83C3006
:10520000012B01D10223FDE0FB68012283F83C2041
:10521000FB681B681B6803F00103012B07D0FB68C8
:105220001B681A68FB681B6842F001021A60FB6881
:105230001B681A68FB681B6822F400621A60FB682E
:10524000242283F83D20FB6800221A64FB68704A20
:10525000DA62FB681B681A68FB681B6842F480729C
:105260001A60FB6900933B6800224FF00111F86857
:1052700000F04EFA0346002B0DD0FB681B681B683C
:1052800003F48073B3F5807F03D1FB684FF40072A1
:105290001A640323B6E07B89DBB21A46FB681B68FD
:1052A00002F0FE021A61FFF727F8F861FB681B683D
:1052B0005B6903F00203022B0CBF01230023DBB266
:1052C000FB75FB681B685B6903F48063B3F5806F53
:1052D0000CBF01230023DBB2BB7525E0FFF70CF800
:1052E0000246FB69D31A3A689A4202D33B68002B04
:1052F00003D1FB68A02283F83D20FB681B685B6933
:1053000003F00203022B0CBF01230023DBB2FB7569
:10531000FB681B685B6903F48063B3F5806F0CBFA7
:1053200001230023DBB2BB75FB6893F83D30DBB291
:10533000A02B05D0FB7D002B02D1BB7D002BCDD057
:10534000FB68202283F83D20FB681B685B6903F043
:105350000203022B29D1FB681B681A68FB681B68D3
:1053600042F400721A6000233B61FB681B685B69B2
:105370003B61FB681B689B693B613B69FB69009370
:10538000192301222149F86800F0C2F90346002BD5
:1053900001D0012336E0FB68202283F83D20FB6822
:1053A000002283F83C2000232CE0FB681B681A686D
:1053B000FB681B6842F400721A60FB681B686FF49C
:1053C00080625A61FB690093192301220F49F86832
:1053D00000F09EF90346002B01D0012312E0BB69C7
:1053E0000133BB61BA697B689A42FFF432AFFB6854
:1053F000202283F83D20FB68002283F83C20012313
:1054000000E0022318462037BD4680BD0200100090
:105410000000FFFF80B588B002AFF8600846114673
:105420001A4603467B810B463B811346FB80FB6893
:105430001B681A68FB681B6842F480721A607B6AFA
:1054400000933B6A00224FF00111F86800F060F908
:105450000346002B0DD0FB681B681B6803F48073A8
:10546000B3F5807F03D1FB684FF400721A64032305
:105470005FE07B89DBB21A46FB681B6802F0FE0224
:105480001A617B6A3A6A2D49F86800F0BBF9034655
:10549000002B01D001234CE000237B61FB681B68DB
:1054A0005B697B61FB681B689B697B617B697A6ACE
:1054B000396AF86800F046FA0346002B0DD0FB6805
:1054C0001B6C042B07D1FB681B681A68FB681B6800
:1054D00042F400721A6001232BE0FB88012B05D1F6
:1054E0003B89DAB2FB681B681A6121E03B891B0A21
:1054F0009BB2DAB2FB681B681A617A6A396AF8688B
:1055000000F020FA0346002B0DD0FB681B6C042B27
:1055100007D1FB681B681A68FB681B6842F40072BD
:105520001A60012305E03B89DAB2FB681B681A6147
:10553000002318461837BD4680BD00BF0200010099
:1055400080B588B002AFF860084611461A46034697
:105550007B810B463B811346FB80FB681B681A6806
:10556000FB681B6842F480621A60FB681B681A685B
:10557000FB681B6842F480721A607B6A00933B6A86
:1055800000224FF00111F86800F0C2F80346002B2A
:105590000DD0FB681B681B6803F48073B3F5807F34
:1055A00003D1FB684FF400721A640323AAE07B89DD
:1055B000DBB21A46FB681B6802F0FE021A617B6AC6
:1055C0003A6A5249F86800F01DF90346002B01D0F1
:1055D000012397E000237B61FB681B685B697B61AB
:1055E000FB681B689B697B617B697A6A396AF8682A
:1055F00000F0A8F90346002B0DD0FB681B6C042BB0
:1056000007D1FB681B681A68FB681B6842F40072CC
:105610001A60012376E0FB88012B05D13B89DAB2C1
:10562000FB681B681A6121E03B891B0A9BB2DAB256
:10563000FB681B681A617A6A396AF86800F082F9B7
:105640000346002B0DD0FB681B6C042B07D1FB68B5
:105650001B681A68FB681B6842F400721A60012319
:1056600050E03B89DAB2FB681B681A617A6A396AD2
:10567000F86800F067F90346002B0DD0FB681B6C3F
:10568000042B07D1FB681B681A68FB681B6842F48F
:1056900000721A60012335E0FB681B681A68FB681A
:1056A0001B6842F480721A607B6A00933B6A002296
:1056B0004FF00111F86800F02BF80346002B0DD0D5
:1056C000FB681B681B6803F48073B3F5807F03D10C
:1056D000FB684FF400721A64032313E07B89DBB28A
:1056E00043F00103DAB2FB681B681A617B6A3A6A0D
:1056F0000649F86800F086F80346002B01D0012324
:1057000000E0002318461837BD4680BD02000100A6
:1057100080B584B000AFF860B9603B601346FB71A0
:1057200048E03B68B3F1FF3F44D0FEF7E5FD024699
:10573000BB69D31A3A689A4202D33B68002B39D12D
:10574000BB681B0CDBB2012B0DD1FB681B685B69CE
:10575000DA43BB6813409BB2002B0CBF012300232C
:10576000DBB21A460CE0FB681B689B69DA43BB6836
:1057700013409BB2002B0CBF01230023DBB21A465F
:10578000FB799A4216D1FB6800221A63FB6820223B
:1057900083F83D20FB68002283F83E20FB681B6CE9
:1057A00043F02002FB681A64FB68002283F83C2067
:1057B000012323E0BB681B0CDBB2012B0DD1FB687E
:1057C0001B685B69DA43BB6813409BB2002B0CBFBC
:1057D00001230023DBB21A460CE0FB681B689B69BF
:1057E000DA43BB6813409BB2002B0CBF012300239C
:1057F000DBB21A46FB799A4293D000231846103741
:10580000BD4680BD80B584B000AFF860B9607A60F5
:105810003B6071E0FB681B685B6903F48063B3F570
:10582000806F23D1FB681B681A68FB681B6842F411
:1058300000721A60FB681B686FF480625A61FB6833
:1058400000221A63FB68202283F83D20FB680022B7
:1058500083F83E20FB681B6C43F00402FB681A646B
:10586000FB68002283F83C20012367E07B68B3F1EA
:10587000FF3F41D0FEF740FD02463B68D31A7A68ED
:105880009A4202D37B68002B36D1BB681B0CDBB27B
:10589000012B0CD1FB681B685B69DA43BB681340C2
:1058A0009BB2002B14BF01230023DBB20BE0FB688B
:1058B0001B689B69DA43BB6813409BB2002B14BF83
:1058C00001230023DBB2002B16D0FB6800221A63F1
:1058D000FB68202283F83D20FB68002283F83E20ED
:1058E000FB681B6C43F02002FB681A64FB68002213
:1058F00083F83C20012321E0BB681B0CDBB2012BA9
:105900000CD1FB681B685B69DA43BB6813409BB230
:10591000002B14BF01230023DBB20BE0FB681B68E4
:105920009B69DA43BB6813409BB2002B14BF012371
:105930000023DBB2002B7FF46DAF00231846103735
:10594000BD4680BD80B584B000AFF860B9607A60B4
:1059500034E0F86800F0E3F80346002B01D001239F
:1059600034E0BB68B3F1FF3F28D0FEF7C5FC024628
:105970007B68D31ABA689A4202D3BB68002B1DD148
:10598000FB681B685B6903F08003802B16D0FB6803
:1059900000221A63FB68202283F83D20FB68002266
:1059A00083F83E20FB681B6C43F02002FB681A64FE
:1059B000FB68002283F83C20012307E0FB681B689A
:1059C0005B6903F08003802BC3D100231846103796
:1059D000BD4680BD80B584B000AFF860B9607A6024
:1059E00034E0F86800F09BF80346002B01D0012357
:1059F00034E0BB68B3F1FF3F28D0FEF77DFC0246E0
:105A00007B68D31ABA689A4202D3BB68002B1DD1B7
:105A1000FB681B685B6903F00403042B16D0FB686A
:105A200000221A63FB68202283F83D20FB680022D5
:105A300083F83E20FB681B6C43F02002FB681A646D
:105A4000FB68002283F83C20012307E0FB681B6809
:105A50005B6903F00403042BC3D1002318461037FD
:105A6000BD4680BD80B584B000AFF860B9607A6093
:105A700049E0FB681B685B6903F01003102B19D128
:105A8000FB681B686FF010025A61FB6800221A6302
:105A9000FB68202283F83D20FB68002283F83E202B
:105AA000FB681A6CFB681A64FB68002283F83C20D0
:105AB000012330E0FEF720FC02467B68D31ABA6867
:105AC0009A4202D3BB68002B1DD1FB681B685B693F
:105AD00003F04003402B16D0FB6800221A63FB68DA
